:100000000C9446000C9465000C9465000C946500FB
:100010000C9465000C9465000C9465000C946500CC
:100020000C9465000C9465000C9465000C946500BC
:100030000C9465000C94DE000C9465000C94650033
:100040000C9465000C9465000C9465000C9465009C
:100050000C9465000C9465000C9465000C9465008C
:100060000C9465000C9465000C9465000C9465007C
:100070000C9465000C9465000C9465000C9465006C
:100080000C9465000C9465000C94650011241FBE4F
:10009000CFEFD0E4DEBFCDBF11E0A0E0B1E0E2E3FE
:1000A000FAE000E00BBF02C007900D92A633B10743
:1000B000D9F721E0A6E3B1E001C01D92A334B20755
:1000C000E1F70E9459030C9417050C940000CF939C
:1000D000DF9300D01F92CDB7DEB789837B836A831D
:1000E00089818A3031F48A819B81BC018DE00E9434
:1000F000670080EC90E0FC018081882F90E08072A6
:100100009927892BB1F386EC90E02981FC012083AB
:1001100080E090E00F900F900F90DF91CF910895C5
:10012000CF93DF93CDB7DEB781E080933601000037
:10013000DF91CF910895CF93DF93CDB7DEB781E8FC
:1001400090E0FC0110820000DF91CF910895CF93E1
:10015000DF93CDB7DEB781E890E02BE0FC01208390
:1001600088E890E02DE730E0FC01318320838FE6C2
:1001700090E022E0FC01208384E890E0FC01118201
:10018000108280910E0190910F01A0911001B09109
:1001900011018093370190933801A0933901B093F6
:1001A0003A018FE590E02FE530E0F90120812068E9
:1001B000FC0120830000DF91CF9108951F920F92E0
:1001C00000905F000F92112400905B000F922F931C
:1001D0003F934F935F936F937F938F939F93AF93CF
:1001E000BF93EF93FF93CF93DF93CDB7DEB78091AB
:1001F000370190913801A0913901B0913A010197EE
:10020000A109B1098093370190933801A093390176
:10021000B0933A018091370190913801A091390152
:10022000B0913A01892B8A2B8B2B91F40E9490007C
:1002300080910E0190910F01A0911001B0911101D8
:100240008093370190933801A0933901B0933A011C
:100250000000DF91CF91FF91EF91BF91AF919F91FE
:100260008F917F916F915F914F913F912F910F905F
:1002700000925B000F9000925F000F901F90189506
:10028000CF93DF9300D000D0CDB7DEB769837A83F8
:100290008B839C8389819A81AB81BC8180930E0181
:1002A00090930F01A0931001B093110180910E0162
:1002B00090910F01A0911001B0911101809337012D
:1002C00090933801A0933901B0933A0100000F9048
:1002D0000F900F900F90DF91CF9108950F931F9380
:1002E000CF93DF9300D000D0CDB7DEB769837A8398
:1002F0008B839C8380913D0190913E01A0913F01B1
:10030000B09140019C01AD0169817A818B819C8112
:100310000E948303882309F477C020E030E0A9011C
:1003200069817A818B819C810E948303882351F4A7
:1003300081E990E021E930E0F90120812870FC0199
:10034000208309C081E990E021E930E0F9012081B2
:100350002360FC01208328E539E344E75FE36981FA
:100360007A818B819C810E948303882344F488E9ED
:1003700090E02FEF3FEFFC013183208334C020E079
:1003800034E244EF56E469817A818B819C810E943A
:10039000A504181634F488E990E0FC01118210825B
:1003A00022C008E910E020E030E040E053E4698139
:1003B0007A818B819C810E94AA04DC01CB019C0183
:1003C000AD0160E074E284EF9AE40E948803DC01EE
:1003D000CB01BC01CD010E94FA03DC01CB010197E6
:1003E000F8019183808384E990E0FC0111821082FE
:1003F00089819A81AB81BC8180933D0190933E01BC
:10040000A0933F01B093400100000F900F900F9018
:100410000F90DF91CF911F910F910895CF93DF93AC
:10042000CDB7DEB780E990E020E4FC01208381E9CC
:1004300090E02BE0FC01208360E070E0CB010E94A3
:100440006E010000DF91CF910895CF93DF93CDB778
:10045000DEB780E990E0FC01108281E990E0FC01C8
:1004600010820000DF91CF910895CF93DF93CDB735
:10047000DEB7809141019091420181309105E9F010
:100480008130910520F0029709F49CC0B2C080E24F
:1004900090E0FC018081882F90E081709927892B62
:1004A00039F481E090E09093420180934101A1C032
:1004B00010924201109241019CC080913B019091A9
:1004C0003C01880F991F880F991F8E5E9E4FFC017B
:1004D00080819181A281B38120E030E040E85FEB30
:1004E000BC01CD010E948303882369F068EE73E0AC
:1004F00080E090E00E94400181E090E09093420112
:100500008093410175C080913B0190913C01880F1F
:10051000991F880F991F8E5E9E4FFC0180819181EB
:10052000A281B38120E030E040E85FEBBC01CD0167
:100530000E948303882389F480E290E0FC0180819B
:10054000882F90E081709927892B39F081E090E025
:1005500090934201809341014BC080913B01909167
:100560003C01880F991F880F991F8E5E9E4FFC01DA
:1005700080819181A281B38120E030E040E85FEB8F
:10058000BC01CD010E948303882309F031C080E2C1
:1005900090E0FC018081882F90E081709927892B61
:1005A00039F510923C0110923B0164E670E080E066
:1005B00090E00E94400182E090E09093420180939D
:1005C000410116C080E290E0FC018081882F90E01C
:1005D00081709927892B39F482E090E09093420151
:1005E0008093410106C0109242011092410101C066
:1005F000000080914101909142018130910569F0A4
:100600008130910520F0029709F449C04EC060E0A6
:1006100070E0CB010E946E0148C080913B01909137
:100620003C01880F991F880F991F8E5E9E4FFC0119
:1006300080819181A281B38120E030E0A901BC01D9
:10064000CD010E948303882339F064EF71E080E0DC
:1006500090E00E94400106C064E670E080E090E017
:100660000E94400180913B0190913C01880F991FAD
:10067000880F991F8E5E9E4FFC0180819181A2811F
:10068000B381BC01CD010E946E0180913B0190912C
:100690003C01019690933C0180933B0106C060E0D1
:1006A00070E0CB010E946E0100000000DF91CF914D
:1006B0000895CF93DF93CDB7DEB781E290E0FC01E0
:1006C000108282E290E02FEFFC01208384E290E030
:1006D0002FEFFC01208385E290E0FC0110820E9454
:1006E0000E0268EC70E080E090E00E9440010E9401
:1006F000A7000E9435020000809136018823E1F3B3
:1007000010923601F6CF0E94300408F481E008957B
:100710000E949C030C946B040E94640458F00E9495
:100720005D0440F029F45F3F29F00C94540451110A
:100730000C949F040C945A040E947C0468F399233F
:10074000B1F3552391F3951B550BBB27AA276217CD
:100750007307840738F09F5F5F4F220F331F441FDA
:10076000AA1FA9F335D00E2E3AF0E0E832D091500E
:100770005040E695001CCAF72BD0FE2F29D0660FFB
:10078000771F881FBB1F261737074807AB07B0E83E
:1007900009F0BB0B802DBF01FF2793585F4F3AF044
:1007A0009E3F510578F00C9454040C949F045F3FD5
:1007B000E4F3983ED4F3869577956795B795F795CA
:1007C0009F5FC9F7880F911D9695879597F90895B2
:1007D000E1E0660F771F881FBB1F6217730784074E
:1007E000BA0720F0621B730B840BBA0BEE1F88F75D
:1007F000E09508950E9401046894B1110C949F043F
:1008000008950E94840488F09F5798F0B92F992783
:10081000B751B0F0E1F0660F771F881F991F1AF0EB
:10082000BA95C9F714C0B13091F00E949E04B1E0AE
:1008300008950C949E04672F782F8827B85F39F0AD
:10084000B93FCCF3869577956795B395D9F73EF484
:1008500090958095709561957F4F8F4F9F4F08952C
:10086000990F0008550FAA0BE0E8FEEF16161706C1
:10087000E807F907C0F012161306E407F50798F029
:10088000621B730B840B950B39F40A2661F0232B42
:10089000242B252B21F408950A2609F4A140A695BE
:1008A0008FEF811D811D089597F99F6780E870E0A3
:1008B00060E008959FEF80EC089500240A941616D6
:1008C000170618060906089500240A94121613063E
:1008D000140605060895092E0394000C11F48823CC
:1008E00052F0BB0F40F4BF2B11F460FF04C06F5FE8
:1008F0007F4F8F4F9F4F089557FD9058440F551FBE
:1009000059F05F3F71F04795880F97FB991F61F091
:100910009F3F79F087950895121613061406551F08
:10092000F2CF4695F1DF08C0161617061806991F74
:10093000F1CF86957105610508940895E894BB2769
:1009400066277727CB0197F908950E94300408F4B1
:100950008FEF08950E94BD040C946B040E945D0407
:1009600038F00E94640420F0952311F00C94540494
:100970000C945A0411240C949F040E947C0470F37C
:10098000959FC1F3950F50E0551F629FF001729F34
:10099000BB27F00DB11D639FAA27F00DB11DAA1F43
:1009A000649F6627B00DA11D661F829F2227B00D90
:1009B000A11D621F739FB00DA11D621F839FA00D1B
:1009C000611D221F749F3327A00D611D231F849F6B
:1009D000600D211D822F762F6A2F11249F575040C2
:1009E0009AF0F1F088234AF0EE0FFF1FBB1F661F3D
:1009F000771F881F91505040A9F79E3F510580F006
:100A00000C9454040C949F045F3FE4F3983ED4F399
:100A1000869577956795B795F795E7959F5FC1F7A9
:100A2000FE2B880F911D9695879597F90895F89458
:020A3000FFCFF6
:100A3200000000020000000067000000000001004A
:100A42000000A4D082437BD49243A4D0A443719DDE
:100A5200AE430000C4430000DC43A4F0F64300D0E0
:060A62000244000080BF09
:00000001FF
