:100000000C9446000C9465000C9465000C946500FB
:100010000C9465000C9465000C9465000C946500CC
:100020000C9465000C9465000C9465000C946500BC
:100030000C9465000C94DE000C9465000C94650033
:100040000C9465000C9465000C9465000C9465009C
:100050000C9465000C9465000C9465000C9465008C
:100060000C9465000C9465000C9465000C9465007C
:100070000C9465000C9465000C9465000C9465006C
:100080000C9465000C9465000C94650011241FBE4F
:10009000CFEFD0E4DEBFCDBF12E0A0E0B1E0EEE6EE
:1000A000FAE000E00BBF02C007900D92A230B1074A
:1000B000D9F722E0A2E0B2E001C01D92AF30B20752
:1000C000E1F70E9477030C9435050C940000CF9360
:1000D000DF9300D01F92CDB7DEB789837B836A831D
:1000E00089818A3031F48A819B81BC018DE00E9434
:1000F000670080EC90E0FC018081882F90E08072A6
:100100009927892BB1F386EC90E02981FC012083AB
:1001100080E090E00F900F900F90DF91CF910895C5
:10012000CF93DF93CDB7DEB781E08093020200006A
:10013000DF91CF910895CF93DF93CDB7DEB781E8FC
:1001400090E0FC0110820000DF91CF910895CF93E1
:10015000DF93CDB7DEB781E890E02BE0FC01208390
:1001600088E890E02DE730E0FC01318320838FE6C2
:1001700090E022E0FC01208384E890E0FC01118201
:10018000108280910E0190910F01A0911001B09109
:1001900011018093030290930402A0930502B0938F
:1001A00006028FE590E02FE530E0F901208120681C
:1001B000FC0120830000DF91CF9108951F920F92E0
:1001C00000905F000F92112400905B000F922F931C
:1001D0003F934F935F936F937F938F939F93AF93CF
:1001E000BF93EF93FF93CF93DF93CDB7DEB78091AB
:1001F000030290910402A0910502B09106020197BA
:10020000A109B1098093030290930402A09305020F
:10021000B09306028091030290910402A09105021E
:10022000B0910602892B8A2B8B2B91F40E949000AF
:1002300080910E0190910F01A0911001B0911101D8
:100240008093030290930402A0930502B0930602E8
:100250000000DF91CF91FF91EF91BF91AF919F91FE
:100260008F917F916F915F914F913F912F910F905F
:1002700000925B000F9000925F000F901F90189506
:10028000CF93DF9300D000D0CDB7DEB769837A83F8
:100290008B839C8389819A81AB81BC8180930E0181
:1002A00090930F01A0931001B093110180910E0162
:1002B00090910F01A0911001B09111018093030260
:1002C00090930402A0930502B093060200000F90E1
:1002D0000F900F900F90DF91CF9108950F931F9380
:1002E000CF93DF9300D000D0CDB7DEB769837A8398
:1002F0008B839C838091090290910A02A0910B024A
:10030000B0910C029C01AD0169817A818B819C8145
:100310000E94A103882309F477C020E030E0A901FE
:1003200069817A818B819C810E94A103882351F489
:1003300081E990E021E930E0F90120812870FC0199
:10034000208309C081E990E021E930E0F9012081B2
:100350002360FC01208328E539E344E75FE36981FA
:100360007A818B819C810E94A103882344F488E9CF
:1003700090E02FEF3FEFFC013183208334C020E079
:1003800034E244EF56E469817A818B819C810E943A
:10039000C304181634F488E990E0FC01118210823D
:1003A00022C008E910E020E030E040E053E4698139
:1003B0007A818B819C810E94C804DC01CB019C0165
:1003C000AD0160E074E284EF9AE40E94A603DC01D0
:1003D000CB01BC01CD010E941804DC01CB010197C7
:1003E000F8019183808384E990E0FC0111821082FE
:1003F00089819A81AB81BC818093090290930A0222
:10040000A0930B02B0930C0200000F900F900F907E
:100410000F90DF91CF911F910F910895CF93DF93AC
:10042000CDB7DEB780E990E020E4FC01208381E9CC
:1004300090E02BE0FC01208360E070E0CB010E94A3
:100440006E010000DF91CF910895CF93DF93CDB778
:10045000DEB780E990E0FC01108281E990E0FC01C8
:1004600010820000DF91CF910895CF93DF93CDB735
:10047000DEB780910D0290910E0281309105E9F076
:100480008130910520F0029709F49FC0B4C080E24A
:1004900090E0FC018081882F90E081709927892B62
:1004A00039F481E090E090930E0280930D02A3C096
:1004B00010920E0210920D029EC080910702909140
:1004C0000802880F991F880F991F8E5E9E4FFC01AE
:1004D00080819181A281B38120E030E040E85FEB30
:1004E000BC01CD010E94A103882369F068EE73E08E
:1004F00080E090E00E94400181E090E090930E0245
:1005000080930D0278C08091070290910802880FB5
:10051000991F880F991F8E5E9E4FFC0180819181EB
:10052000A281B38120E030E040E85FEBBC01CD0167
:100530000E94A103882379F480E290E0FC0180818D
:10054000882F90E081709927892B29F010920E0254
:1005500010920D0239C08091070290910802880F15
:10056000991F880F991F8E5E9E4FFC01808191819B
:10057000A281B38120E030E040E85FEBBC01CD0117
:100580000E94A1038823D9F480E290E0FC018081DD
:10059000882F90E081709927892B89F410920802A6
:1005A0001092070264E670E080E090E00E94400153
:1005B00082E090E090930E0280930D0205C01092AD
:1005C0000E0210920D0217C016C080E290E0FC01EE
:1005D0008081882F90E081709927892B39F482E0FF
:1005E00090E090930E0280930D0204C010920E02D0
:1005F00010920D02000080910D0290910E02813048
:10060000910589F08130910520F0029709F461C0CD
:100610006AC060E070E0CB010E946E011092080297
:100620001092070260C08091070290910802880F23
:10063000991F880F991F8E5E9E4FFC0180819181CA
:10064000A281B38120E030E040E85FEBBC01CD0146
:100650000E94A1038823D1F08091070290910802A3
:10066000880F991F880F991F86579E4FFC01808124
:100670009181A281B381BC01CD010E941F04DC01E4
:10068000CB01BC01CD010E94400106C064E670E0D0
:1006900080E090E00E944001809107029091080262
:1006A000880F991F880F991F8E5E9E4FFC018081D5
:1006B0009181A281B381BC01CD010E946E01809124
:1006C0000702909108020196909308028093070216
:1006D0000AC060E070E0CB010E946E011092080237
:1006E0001092070200000000DF91CF910895CF9390
:1006F000DF93CDB7DEB781E290E0FC01108282E2A9
:1007000090E02FEFFC01208384E290E02FEFFC01CA
:10071000208385E290E0FC0110820E940E0268ECCA
:1007200070E080E090E00E9440010E94A7000E94DB
:1007300035020000809102028823E1F31092020248
:10074000F6CF0E944E0408F481E008950E94BA0397
:100750000C9489040E94820458F00E947B0440F0AB
:1007600029F45F3F29F00C94720451110C94BD04DC
:100770000C9478040E949A0468F39923B1F35523EA
:1007800091F3951B550BBB27AA27621773078407A4
:1007900038F09F5F5F4F220F331F441FAA1FA9F33A
:1007A00035D00E2E3AF0E0E832D091505040E69528
:1007B000001CCAF72BD0FE2F29D0660F771F881F89
:1007C000BB1F261737074807AB07B0E809F0BB0B7C
:1007D000802DBF01FF2793585F4F3AF09E3F510590
:1007E00078F00C9472040C94BD045F3FE4F3983EDF
:1007F000D4F3869577956795B795F7959F5FC9F779
:10080000880F911D9695879597F90895E1E0660FF9
:10081000771F881FBB1F621773078407BA0720F072
:10082000621B730B840BBA0BEE1F88F7E0950895DB
:100830000E941F046894B1110C94BD0408950E9495
:10084000A20488F09F5798F0B92F9927B751B0F0BC
:10085000E1F0660F771F881F991F1AF0BA95C9F744
:1008600014C0B13091F00E94BC04B1E008950C9422
:10087000BC04672F782F8827B85F39F0B93FCCF3D5
:10088000869577956795B395D9F73EF490958095C1
:10089000709561957F4F8F4F9F4F0895990F000876
:1008A000550FAA0BE0E8FEEF16161706E807F90742
:1008B000C0F012161306E407F50798F0621B730BDD
:1008C000840B950B39F40A2661F0232B242B252B5E
:1008D00021F408950A2609F4A140A6958FEF811D01
:1008E000811D089597F99F6780E870E060E00895A2
:1008F0009FEF80EC089500240A9416161706180638
:100900000906089500240A94121613061406050613
:100910000895092E0394000C11F4882352F0BB0FA4
:1009200040F4BF2B11F460FF04C06F5F7F4F8F4F07
:100930009F4F089557FD9058440F551F59F05F3F42
:1009400071F04795880F97FB991F61F09F3F79F0F1
:1009500087950895121613061406551FF2CF469573
:10096000F1DF08C0161617061806991FF1CF8695F5
:100970007105610508940895E894BB2766277727D9
:10098000CB0197F908950E944E0408F48FEF089563
:100990000E94DB040C9489040E947B0438F00E94BE
:1009A000820420F0952311F00C9472040C947804C6
:1009B00011240C94BD040E949A0470F3959FC1F316
:1009C000950F50E0551F629FF001729FBB27F00DFD
:1009D000B11D639FAA27F00DB11DAA1F649F662752
:1009E000B00DA11D661F829F2227B00DA11D621FA1
:1009F000739FB00DA11D621F839FA00D611D221F5B
:100A0000749F3327A00D611D231F849F600D211D3E
:100A1000822F762F6A2F11249F5750409AF0F1F0C1
:100A200088234AF0EE0FFF1FBB1F661F771F881F2A
:100A300091505040A9F79E3F510580F00C947204EC
:100A40000C94BD045F3FE4F3983ED4F3869577950C
:100A50006795B795F795E7959F5FC1F7FE2B880FD0
:0E0A6000911D9695879597F90895F894FFCF0C
:100A6E00000000020000000067000000000001000E
:100A7E000000A4D0A44300D00244A4D0A443A4F008
:100A8E00F643A4D0A4430000DC430000C443719D90
:100A9E00AE430000C443A4D082437BD49243719DE5
:100AAE00AE430000DC4300D00244A4F0F643000045
:100ABE00C443A4D0A4437BD49243A4D0A4437BD4F8
:100ACE009243A4D08243A4F07643000080BF00007E
:100ADE000000000000000000000000000000000008
:100AEE00000000000000000000000000484300006D
:100AFE00614400004843000061440000C843000008
:100B0E00FA430000AF430000AF4300007A440000F8
:100B1E00C8430000A0430080A2430080A24300808F
:100B2E00A2430080A2430080A2430080A243008023
:100B3E00A24300007A4400005C43000048430000DA
:100B4E007A4400004843000000000000000000004E
:100B5E000000000000000000000000000000000087
:020B6E00000085
:00000001FF
