:100000000C9446000C9465000C9465000C946500FB
:100010000C9465000C9465000C9465000C946500CC
:100020000C9465000C9465000C9465000C946500BC
:100030000C9465000C94DE000C9465000C94650033
:100040000C9465000C9465000C9465000C9465009C
:100050000C9465000C9465000C9465000C9465008C
:100060000C9465000C9465000C9465000C9465007C
:100070000C9465000C9465000C9465000C9465006C
:100080000C9465000C9465000C94650011241FBE4F
:10009000CFEFD0E4DEBFCDBF11E0A0E0B1E0EAE5F4
:1000A000FAE000E00BBF02C007900D92A233B10747
:1000B000D9F721E0A2E3B1E001C01D92A034B2075C
:1000C000E1F70E946D030C942B050C940000CF9374
:1000D000DF9300D01F92CDB7DEB789837B836A831D
:1000E00089818A3031F48A819B81BC018DE00E9434
:1000F000670080EC90E0FC018081882F90E08072A6
:100100009927892BB1F386EC90E02981FC012083AB
:1001100080E090E00F900F900F90DF91CF910895C5
:10012000CF93DF93CDB7DEB781E08093320100003B
:10013000DF91CF910895CF93DF93CDB7DEB781E8FC
:1001400090E0FC0110820000DF91CF910895CF93E1
:10015000DF93CDB7DEB781E890E02BE0FC01208390
:1001600088E890E02DE730E0FC01318320838FE6C2
:1001700090E022E0FC01208384E890E0FC01118201
:10018000108280910E0190910F01A0911001B09109
:1001900011018093330190933401A0933501B09302
:1001A00036018FE590E02FE530E0F90120812068ED
:1001B000FC0120830000DF91CF9108951F920F92E0
:1001C00000905F000F92112400905B000F922F931C
:1001D0003F934F935F936F937F938F939F93AF93CF
:1001E000BF93EF93FF93CF93DF93CDB7DEB78091AB
:1001F000330190913401A0913501B09136010197FE
:10020000A109B1098093330190933401A093350182
:10021000B09336018091330190913401A091350162
:10022000B0913601892B8A2B8B2B91F40E94900080
:1002300080910E0190910F01A0911001B0911101D8
:100240008093330190933401A0933501B09336012C
:100250000000DF91CF91FF91EF91BF91AF919F91FE
:100260008F917F916F915F914F913F912F910F905F
:1002700000925B000F9000925F000F901F90189506
:10028000CF93DF9300D000D0CDB7DEB769837A83F8
:100290008B839C8389819A81AB81BC8180930E0181
:1002A00090930F01A0931001B093110180910E0162
:1002B00090910F01A0911001B09111018093330131
:1002C00090933401A0933501B093360100000F9054
:1002D0000F900F900F90DF91CF9108950F931F9380
:1002E000CF93DF9300D000D0CDB7DEB769837A8398
:1002F0008B839C8380913A0190913B01A0913C01BA
:10030000B0913D019C01AD0169817A818B819C8115
:100310000E949703882309F477C020E030E0A90108
:1003200069817A818B819C810E949703882351F493
:1003300081E990E021E930E0F90120812870FC0199
:10034000208309C081E990E021E930E0F9012081B2
:100350002360FC01208328E539E344E75FE36981FA
:100360007A818B819C810E949703882344F488E9D9
:1003700090E02FEF3FEFFC013183208334C020E079
:1003800034E244EF56E469817A818B819C810E943A
:10039000B904181634F488E990E0FC011182108247
:1003A00022C008E910E020E030E040E053E4698139
:1003B0007A818B819C810E94BE04DC01CB019C016F
:1003C000AD0160E074E284EF9AE40E949C03DC01DA
:1003D000CB01BC01CD010E940E04DC01CB010197D1
:1003E000F8019183808384E990E0FC0111821082FE
:1003F00089819A81AB81BC8180933A0190933B01C2
:10040000A0933C01B0933D0100000F900F900F901E
:100410000F90DF91CF911F910F910895CF93DF93AC
:10042000CDB7DEB780E990E020E4FC01208381E9CC
:1004300090E02BE0FC01208360E070E0CB010E94A3
:100440006E010000DF91CF910895CF93DF93CDB778
:10045000DEB780E990E0FC01108281E990E0FC01C8
:1004600010820000DF91CF910895CF93DF93CDB735
:10047000DEB780913E0190913F018230910509F4F1
:100480005BC08330910528F4009779F00197A1F0C3
:1004900082C08430910509F45DC08430910508F470
:1004A00052C0059709F470C076C081E090E0909347
:1004B0003F0180933E016FC080E290E0FC018081AB
:1004C000882F90E08095909587709927019739F44F
:1004D00082E090E090933F0180933E015CC080E217
:1004E00090E0FC018081882F90E080959095877046
:1004F0009927029739F483E090E090933F0180932D
:100500003E0149C080E290E0FC018081882F90E0AC
:100510008095909587709927049739F485E090E04D
:1005200090933F0180933E0136C081E090E090932C
:100530003F0180933E012FC084E090E090933F0103
:1005400080933E0128C084E090E090933F01809327
:100550003E0121C080E290E0FC018081882F90E084
:100560008095909587709927892B39F481E090E0E8
:1005700090933F0180933E010EC084E090E0909301
:100580003F0180933E0107C084E090E090933F01DB
:1005900080933E01000080913E0190913F018230A6
:1005A0009105A9F08330910538F4009709F488C0CB
:1005B000019709F487C07EC08430910509F484C096
:1005C0008430910560F1059709F451C073C08091A2
:1005D000370190913801079748F480913701909145
:1005E0003801019690933801809337018091390149
:1005F000882309F46BC08091370190913801880FEE
:10060000991F880F991F8E5E9E4FFC0180819181FA
:10061000A281B381BC01CD010E946E0157C08091BF
:10062000370190913801892B49F0809137019091E1
:1006300038010197909338018093370180913901F7
:10064000882309F445C08091370190913801880FC3
:10065000991F880F991F8E5E9E4FFC0180819181AA
:10066000A281B381BC01CD010E946E0131C0809195
:1006700039018823B9F481E08093390180913701F1
:1006800090913801880F991F880F991F8E5E9E4F99
:10069000FC0180819181A281B381BC01CD010E94C6
:1006A0006E0117C01092390160E070E0CB010E942A
:1006B0006E010FC060E070E0CB010E946E0109C0C6
:1006C000000007C0000005C0000003C0000001C01A
:1006D00000000000DF91CF910895CF93DF93CDB755
:1006E000DEB781E290E0FC01108282E290E02FEF21
:1006F000FC01208384E290E02FEFFC01208385E25F
:1007000090E0FC0110820E940E0268EC70E080E034
:1007100090E00E9440010E94A7000E943502000064
:10072000809132018823E1F310923201F6CF0E94CA
:10073000440408F481E008950E94B0030C947F04FF
:100740000E94780458F00E94710440F029F45F3F41
:1007500029F00C94680451110C94B3040C946E04A9
:100760000E94900468F39923B1F3552391F3951BEC
:10077000550BBB27AA2762177307840738F09F5FC2
:100780005F4F220F331F441FAA1FA9F335D00E2E2F
:100790003AF0E0E832D091505040E695001CCAF79C
:1007A0002BD0FE2F29D0660F771F881FBB1F26175F
:1007B00037074807AB07B0E809F0BB0B802DBF0136
:1007C000FF2793585F4F3AF09E3F510578F00C9405
:1007D00068040C94B3045F3FE4F3983ED4F3869529
:1007E00077956795B795F7959F5FC9F7880F911D26
:1007F0009695879597F90895E1E0660F771F881F12
:10080000BB1F621773078407BA0720F0621B730BC4
:10081000840BBA0BEE1F88F7E09508950E9415042B
:100820006894B1110C94B30408950E94980488F060
:100830009F5798F0B92F9927B751B0F0E1F0660FA4
:10084000771F881F991F1AF0BA95C9F714C0B130E5
:1008500091F00E94B204B1E008950C94B204672FA5
:10086000782F8827B85F39F0B93FCCF38695779514
:100870006795B395D9F73EF49095809570956195FD
:100880007F4F8F4F9F4F0895990F0008550FAA0B68
:10089000E0E8FEEF16161706E807F907C0F0121693
:1008A0001306E407F50798F0621B730B840B950B96
:1008B00039F40A2661F0232B242B252B21F40895EB
:1008C0000A2609F4A140A6958FEF811D811D089588
:1008D00097F99F6780E870E060E008959FEF80ECF3
:1008E000089500240A941616170618060906089596
:1008F00000240A9412161306140605060895092EFC
:100900000394000C11F4882352F0BB0F40F4BF2B6A
:1009100011F460FF04C06F5F7F4F8F4F9F4F0895AA
:1009200057FD9058440F551F59F05F3F71F04795A0
:10093000880F97FB991F61F09F3F79F08795089585
:10094000121613061406551FF2CF4695F1DF08C0A4
:10095000161617061806991FF1CF869571056105C1
:1009600008940895E894BB2766277727CB0197F969
:1009700008950E94440408F48FEF08950E94D10462
:100980000C947F040E94710438F00E94780420F0D7
:10099000952311F00C9468040C946E0411240C94AB
:1009A000B3040E94900470F3959FC1F3950F50E03B
:1009B000551F629FF001729FBB27F00DB11D639F11
:1009C000AA27F00DB11DAA1F649F6627B00DA11DB7
:1009D000661F829F2227B00DA11D621F739FB00D5D
:1009E000A11D621F839FA00D611D221F749F3327CD
:1009F000A00D611D231F849F600D211D822F762F66
:100A00006A2F11249F5750409AF0F1F088234AF042
:100A1000EE0FFF1FBB1F661F771F881F91505040AE
:100A2000A9F79E3F510580F00C9468040C94B30420
:100A30005F3FE4F3983ED4F3869577956795B79535
:100A4000F795E7959F5FC1F7FE2B880F911D96954F
:0A0A5000879597F90895F894FFCFF9
:100A5A000000000200000000670000000000010022
:100A6A000000A4D082437BD49243A4D0A443719DB6
:100A7A00AE430000C4430000DC43A4F0F64300D0B8
:020A8A00024424
:00000001FF
